./src/bitcoin-cli -datadir=/chain/btc getrawtransaction 4fdf164acf5b5b9e263a04169713bb5374fb2a30371e4a9b465d8fa259977c39
010000000630aad54a45558bd271f2e90817f42d1a674d79ccf5109db18daf0928e1179397000000008a473044022050c3bf01db3c9b50c8a7ca82ae5567e7363d4057740c7e7d9cbe96918faa15140220775e91c9a5ecde2a87cf584c3763b9a9c6c9a12bf4e5cf071a5e88c9c6d21aab0141040441d225ffab6b6fe8a9c080cc80e717c9c2feb8f95773e84cea772e841af0ea0783d0ef77195c44917d78922b7648f4c50d04c9e5cf681cd3782e8a45448376feffffff09a2ab97b464ce5d9c63c2c1c3b202e15bb1069068b73082073e8096a86767b5000000008a473044022075bb82c118eda0e287bf8918a46c431e4a840166690e9f68d49e9a4425a4485f0220347bc67539130a144f11168f36ea6698bcf908e3dc72989e799062bba06d0c84014104b6dadc016f432726962f9ff68d396a94b0813566d1081ae0a1fd23b87ef96658935153dad67f4559139bb2341d3465045f88b6951e54ba4b000f5656f1a4f19efeffffff0cd8359930901812806cde228ecca38872a617751bab9c28c6f8686dec0ae940000000008a473044022024115ab1129184c968e0f875c10d33e4ce8655a48fdb429d2901d7529ddc71ee022073888f0baee907032639c0057fdc20dd6f7cd6ed5ac58a438aa2b9b1f16346060141043035159b10516252d9639f2e59d1af89febe2327eb217bfbe1b3ca4c7bc9ed15b6310a8fcc315eb54af51e02c5c10278b7940798295d332b563ae495b26b5fb9feffffff7d24542a8cd45c60c9693add7ebc4026df7bb092bd82f596c939931e918a58f7000000008b483045022100e2bee15aab2714ddbcebc2ca4f8e98b781208ef31fbcb13eb09576e3d5353f0f02204da3ad862ee3b667646ceac5ba70adb023fa7e386e7b90eb9a7b7b6577f1a47f014104aee99095d5bf5f11f741297a0762bc7674901f4ad7f60456b3bdfc2b0a565aefb26bb5b7b12cc407a33a7450d0372f36e5a52f8f2dc43dd69455d581938a1687feffffffa0336120971d0868b9128af4e1b2348d01578941d6f83bf8bba255613ae33569000000006a4730440220032556a92b2555dd7429752b38cb3da5cb453d2e3f94a7597b8bdca698e93d5c02200eda6d4ce5e7768da0d2443b030ebb8fccb5211adc492552d2a5772e12ba6785012103b8b6619b042e107f28f567c8b03f88e2a2ac20524d007542dcb5cfd956ad2442feffffffdab4e0d398765e09e2598c1bef2b7b6b33837d9cba82016fe47b5d6af9cebf8b000000006b483045022100e47f95a6f26f8c57194adc7e831abbaf73528437b5be5c24a295c53a003dd42a02207e69063936c05ed64475d16d3597ea7aeefb51d4f1af939a5f2ac75c94297cdc01210278802bbc105c5045af7d570f6d8661f4c465f197f506d65c77ac94004ed3d005feffffff0249420f00000000001976a9140e5457ed9defdd33559e1fb7d9d3d05bf0a713ae88ac541e4a2f010000001976a9144c7f130f715f99636ec3e623b038625850db2dc688ac0fd10500


./src/bitcoin-cli -datadir=/chain/btc decoderawtransaction 010000000630aad54a45558bd271f2e90817f42d1a674d79ccf5109db18daf0928e1179397000000008a473044022050c3bf01db3c9b50c8a7ca82ae5567e7363d4057740c7e7d9cbe96918faa15140220775e91c9a5ecde2a87cf584c3763b9a9c6c9a12bf4e5cf071a5e88c9c6d21aab0141040441d225ffab6b6fe8a9c080cc80e717c9c2feb8f95773e84cea772e841af0ea0783d0ef77195c44917d78922b7648f4c50d04c9e5cf681cd3782e8a45448376feffffff09a2ab97b464ce5d9c63c2c1c3b202e15bb1069068b73082073e8096a86767b5000000008a473044022075bb82c118eda0e287bf8918a46c431e4a840166690e9f68d49e9a4425a4485f0220347bc67539130a144f11168f36ea6698bcf908e3dc72989e799062bba06d0c84014104b6dadc016f432726962f9ff68d396a94b0813566d1081ae0a1fd23b87ef96658935153dad67f4559139bb2341d3465045f88b6951e54ba4b000f5656f1a4f19efeffffff0cd8359930901812806cde228ecca38872a617751bab9c28c6f8686dec0ae940000000008a473044022024115ab1129184c968e0f875c10d33e4ce8655a48fdb429d2901d7529ddc71ee022073888f0baee907032639c0057fdc20dd6f7cd6ed5ac58a438aa2b9b1f16346060141043035159b10516252d9639f2e59d1af89febe2327eb217bfbe1b3ca4c7bc9ed15b6310a8fcc315eb54af51e02c5c10278b7940798295d332b563ae495b26b5fb9feffffff7d24542a8cd45c60c9693add7ebc4026df7bb092bd82f596c939931e918a58f7000000008b483045022100e2bee15aab2714ddbcebc2ca4f8e98b781208ef31fbcb13eb09576e3d5353f0f02204da3ad862ee3b667646ceac5ba70adb023fa7e386e7b90eb9a7b7b6577f1a47f014104aee99095d5bf5f11f741297a0762bc7674901f4ad7f60456b3bdfc2b0a565aefb26bb5b7b12cc407a33a7450d0372f36e5a52f8f2dc43dd69455d581938a1687feffffffa0336120971d0868b9128af4e1b2348d01578941d6f83bf8bba255613ae33569000000006a4730440220032556a92b2555dd7429752b38cb3da5cb453d2e3f94a7597b8bdca698e93d5c02200eda6d4ce5e7768da0d2443b030ebb8fccb5211adc492552d2a5772e12ba6785012103b8b6619b042e107f28f567c8b03f88e2a2ac20524d007542dcb5cfd956ad2442feffffffdab4e0d398765e09e2598c1bef2b7b6b33837d9cba82016fe47b5d6af9cebf8b000000006b483045022100e47f95a6f26f8c57194adc7e831abbaf73528437b5be5c24a295c53a003dd42a02207e69063936c05ed64475d16d3597ea7aeefb51d4f1af939a5f2ac75c94297cdc01210278802bbc105c5045af7d570f6d8661f4c465f197f506d65c77ac94004ed3d005feffffff0249420f00000000001976a9140e5457ed9defdd33559e1fb7d9d3d05bf0a713ae88ac541e4a2f010000001976a9144c7f130f715f99636ec3e623b038625850db2dc688ac0fd10500
{
    "txid" : "4fdf164acf5b5b9e263a04169713bb5374fb2a30371e4a9b465d8fa259977c39",
    "version" : 1,
    "locktime" : 381199,
    "vin" : [
        {
            "txid" : "979317e12809af8db19d10f5cc794d671a2df41708e9f271d28b55454ad5aa30",
            "vout" : 0,
            "scriptSig" : {
                "asm" : "3044022050c3bf01db3c9b50c8a7ca82ae5567e7363d4057740c7e7d9cbe96918faa15140220775e91c9a5ecde2a87cf584c3763b9a9c6c9a12bf4e5cf071a5e88c9c6d21aab01 040441d225ffab6b6fe8a9c080cc80e717c9c2feb8f95773e84cea772e841af0ea0783d0ef77195c44917d78922b7648f4c50d04c9e5cf681cd3782e8a45448376",
                "hex" : "473044022050c3bf01db3c9b50c8a7ca82ae5567e7363d4057740c7e7d9cbe96918faa15140220775e91c9a5ecde2a87cf584c3763b9a9c6c9a12bf4e5cf071a5e88c9c6d21aab0141040441d225ffab6b6fe8a9c080cc80e717c9c2feb8f95773e84cea772e841af0ea0783d0ef77195c44917d78922b7648f4c50d04c9e5cf681cd3782e8a45448376"
            },
            "sequence" : 4294967294
        },
        {
            "txid" : "b56767a896803e078230b7689006b15be102b2c3c1c2639c5dce64b497aba209",
            "vout" : 0,
            "scriptSig" : {
                "asm" : "3044022075bb82c118eda0e287bf8918a46c431e4a840166690e9f68d49e9a4425a4485f0220347bc67539130a144f11168f36ea6698bcf908e3dc72989e799062bba06d0c8401 04b6dadc016f432726962f9ff68d396a94b0813566d1081ae0a1fd23b87ef96658935153dad67f4559139bb2341d3465045f88b6951e54ba4b000f5656f1a4f19e",
                "hex" : "473044022075bb82c118eda0e287bf8918a46c431e4a840166690e9f68d49e9a4425a4485f0220347bc67539130a144f11168f36ea6698bcf908e3dc72989e799062bba06d0c84014104b6dadc016f432726962f9ff68d396a94b0813566d1081ae0a1fd23b87ef96658935153dad67f4559139bb2341d3465045f88b6951e54ba4b000f5656f1a4f19e"
            },
            "sequence" : 4294967294
        },
        {
            "txid" : "40e90aec6d68f8c6289cab1b7517a67288a3cc8e22de6c80121890309935d80c",
            "vout" : 0,
            "scriptSig" : {
                "asm" : "3044022024115ab1129184c968e0f875c10d33e4ce8655a48fdb429d2901d7529ddc71ee022073888f0baee907032639c0057fdc20dd6f7cd6ed5ac58a438aa2b9b1f163460601 043035159b10516252d9639f2e59d1af89febe2327eb217bfbe1b3ca4c7bc9ed15b6310a8fcc315eb54af51e02c5c10278b7940798295d332b563ae495b26b5fb9",
                "hex" : "473044022024115ab1129184c968e0f875c10d33e4ce8655a48fdb429d2901d7529ddc71ee022073888f0baee907032639c0057fdc20dd6f7cd6ed5ac58a438aa2b9b1f16346060141043035159b10516252d9639f2e59d1af89febe2327eb217bfbe1b3ca4c7bc9ed15b6310a8fcc315eb54af51e02c5c10278b7940798295d332b563ae495b26b5fb9"
            },
            "sequence" : 4294967294
        },
        {
            "txid" : "f7588a911e9339c996f582bd92b07bdf2640bc7edd3a69c9605cd48c2a54247d",
            "vout" : 0,
            "scriptSig" : {
                "asm" : "3045022100e2bee15aab2714ddbcebc2ca4f8e98b781208ef31fbcb13eb09576e3d5353f0f02204da3ad862ee3b667646ceac5ba70adb023fa7e386e7b90eb9a7b7b6577f1a47f01 04aee99095d5bf5f11f741297a0762bc7674901f4ad7f60456b3bdfc2b0a565aefb26bb5b7b12cc407a33a7450d0372f36e5a52f8f2dc43dd69455d581938a1687",
                "hex" : "483045022100e2bee15aab2714ddbcebc2ca4f8e98b781208ef31fbcb13eb09576e3d5353f0f02204da3ad862ee3b667646ceac5ba70adb023fa7e386e7b90eb9a7b7b6577f1a47f014104aee99095d5bf5f11f741297a0762bc7674901f4ad7f60456b3bdfc2b0a565aefb26bb5b7b12cc407a33a7450d0372f36e5a52f8f2dc43dd69455d581938a1687"
            },
            "sequence" : 4294967294
        },
        {
            "txid" : "6935e33a6155a2bbf83bf8d6418957018d34b2e1f48a12b968081d97206133a0",
            "vout" : 0,
            "scriptSig" : {
                "asm" : "30440220032556a92b2555dd7429752b38cb3da5cb453d2e3f94a7597b8bdca698e93d5c02200eda6d4ce5e7768da0d2443b030ebb8fccb5211adc492552d2a5772e12ba678501 03b8b6619b042e107f28f567c8b03f88e2a2ac20524d007542dcb5cfd956ad2442",
                "hex" : "4730440220032556a92b2555dd7429752b38cb3da5cb453d2e3f94a7597b8bdca698e93d5c02200eda6d4ce5e7768da0d2443b030ebb8fccb5211adc492552d2a5772e12ba6785012103b8b6619b042e107f28f567c8b03f88e2a2ac20524d007542dcb5cfd956ad2442"
            },
            "sequence" : 4294967294
        },
        {
            "txid" : "8bbfcef96a5d7be46f0182ba9c7d83336b7b2bef1b8c59e2095e7698d3e0b4da",
            "vout" : 0,
            "scriptSig" : {
                "asm" : "3045022100e47f95a6f26f8c57194adc7e831abbaf73528437b5be5c24a295c53a003dd42a02207e69063936c05ed64475d16d3597ea7aeefb51d4f1af939a5f2ac75c94297cdc01 0278802bbc105c5045af7d570f6d8661f4c465f197f506d65c77ac94004ed3d005",
                "hex" : "483045022100e47f95a6f26f8c57194adc7e831abbaf73528437b5be5c24a295c53a003dd42a02207e69063936c05ed64475d16d3597ea7aeefb51d4f1af939a5f2ac75c94297cdc01210278802bbc105c5045af7d570f6d8661f4c465f197f506d65c77ac94004ed3d005"
            },
            "sequence" : 4294967294
        }
    ],
    "vout" : [
        {
            "value" : 0.01000009,
            "n" : 0,
            "scriptPubKey" : {
                "asm" : "OP_DUP OP_HASH160 0e5457ed9defdd33559e1fb7d9d3d05bf0a713ae OP_EQUALVERIFY OP_CHECKSIG",
                "hex" : "76a9140e5457ed9defdd33559e1fb7d9d3d05bf0a713ae88ac",
                "reqSigs" : 1,
                "type" : "pubkeyhash",
                "addresses" : [
                    "12JmVyQufNBtd9Z1Bun1YdWSNwfq2YXntM"
                ]
            }
        },
        {
            "value" : 50.88353876,
            "n" : 1,
            "scriptPubKey" : {
                "asm" : "OP_DUP OP_HASH160 4c7f130f715f99636ec3e623b038625850db2dc6 OP_EQUALVERIFY OP_CHECKSIG",
                "hex" : "76a9144c7f130f715f99636ec3e623b038625850db2dc688ac",
                "reqSigs" : 1,
                "type" : "pubkeyhash",
                "addresses" : [
                    "17yUasHZHbpiMLibjaFsFFKYmuhzss8uER"
                ]
            }
        }
    ]
}
